:020000040800F2
:10000000F00900246D030008434B00081F49000855
:10001000414B0008CF050008795600080000000099
:10002000000000000000000000000000894D0008F2
:10003000F507000800000000454B00088B4D000844
:100040008B0300088B0300088B0300088B03000858
:100050008B0300088B0300088B0300088B03000848
:100060008B0300088B0300088B030008D1050008F0
:100070008B0300088B0300088B0300088B03000828
:100080008B0300088B0300088B0300081908000885
:10009000250800088B0300088B0300088B03000869
:1000A0008B0300088B0300088B0300088B030008F8
:1000B000FD4E00088B0300088B0300088B0300082B
:1000C0008B0300088B0300088B0300088B030008D8
:1000D0008B0300088B0300088B0300088B030008C8
:1000E0008B0300088B030008000000008B0300084E
:1000F0008B0300088B0300088B0300088B030008A8
:100100008B0300088B0300088B0300088B03000897
:100110008B030008E94F00088B0300088B030008DD
:100120008B0300088B0300088B0300088B03000877
:100130008B0300088B0300088B0300088B03000867
:1001400000000000000000000000000000000000AF
:100150008B0300088B0300088B0300088B03000847
:100160008B0300088B0300088B0300088B03000837
:100170008B0300088B0300088B03000800000000BD
:100180008B0300088B0300088B0300088B03000817
:100190008B0300088B0300088B0300088B03000807
:1001A0008B0300088B0300088B030008000000008D
:1001B0008B0300088B0300088B0300088B030008E7
:1001C0008B0300088B030008000000000000000003
:1001D00000000000000000008B0300080000000089
:1001E000000000000000000000000000000000000F
:1001F00000000000000000008B0300088B030008D3
:100200008B0300088B030008000000008B0300082C
:100210008B0300088B0300088B0300088B03000886
:100220008B030008000000008B03000800000000A2
:100230008B0300088B030008000000008B030008FC
:100240008B0300088B0300088B0300088B03000856
:100250008B0300088B0300088B0300088B03000846
:100260008B0300088B0300088B0300088B03000836
:100270008B0300088B0300088B03000800000000BC
:100280008B0300088B0300088B0300088B03000816
:10029000000000008B0300088B0300080000000032
:1002A000000000008B0300088B0300088B0300088C
:1002B0008B0300088B0300088B030008310800083B
:1002C0008B0300088B0300088B03000800F002F882
:1002D00000F03CF80AA090E8000C82448344AAF1A4
:1002E0000107DA4501D100F031F8AFF2090EBAE8A2
:1002F0000F0013F0010F18BFFB1A43F0010318475A
:10030000F454000014550000103A24BF78C878C196
:10031000FAD8520724BF30C830C144BF04680C600B
:10032000704700000023002400250026103A28BF53
:1003300078C1FBD8520728BF30C148BF0B60704757
:100340001FB505F003FA1FBD10B510BD00F005F98B
:100350001146FFF7F5FF05F0D9F900F023F903B4D2
:10036000FFF7F2FF03BC00F02BF900000A488047BA
:100370000A4880470A480047FEE7FEE7FEE7FEE737
:10038000FEE7FEE7FEE7FEE7FEE7FEE70548064973
:10039000064A074B70470000FD070008254E00087D
:1003A000CD020008F0030024F0090024F005002429
:1003B000F005002453EA020C00F069802DE9F04BAF
:1003C0004FF00006002B1FBFB3FA83F503FA05F4C4
:1003D00024FA05F65E4012BF1643B2FA82F502FA1D
:1003E00005F4C5F120051EBF22FA05FC44EA0C0401
:1003F000203556EA044C4FEA144418BF641C4FF0F1
:1004000000084FF00009904271EB030C39D300292A
:1004100019BFB1FA81F701FA07F6B0FA80F700FACE
:1004200007F6C7F120071EBF20FA07FC46EA0C06B4
:100430002037B6FBF4FCA7EB0507103F07F01F0BB6
:10044000CBF120060CFA0BFB2CFA06F644BFB346A0
:100450000026202FA4BF5E464FF0000B5BEA060C7F
:1004600008BF4FF0010B19EB0B09ABFB027C48EB0B
:100470000608C01B06FB02CC0BFB03CC71EB0C0186
:10048000C1E70B46024641464846BDE8F08B13B52E
:100490004FF000004FF00001AFF30080BDE81C40BA
:1004A000704710B5203AC0F00B80B1E81850203AE0
:1004B000A0E81850B1E81850A0E81850BFF4F5AF04
:1004C0005FEA027C24BFB1E81850A0E8185044BF8E
:1004D00018C918C0BDE810405FEA827C24BF51F8FB
:1004E000043B40F8043B08BF7047D20728BF31F8EF
:1004F000023B48BF11F8012B28BF20F8023B48BF40
:1005000000F8012B70474FF0000200B513469446E7
:100510009646203922BFA0E80C50A0E80C50B1F15B
:100520002001BFF4F7AF090728BFA0E80C5048BF6F
:100530000CC05DF804EB890028BF40F8042B08BF0D
:10054000704748BF20F8022B11F0804F18BF00F809
:10055000012B7047704770477047754600F02CF8C4
:10056000AE4605006946534620F00700854618B0A0
:1005700020B5FFF70BFFBDE820404FF000064FF01D
:1005800000074FF000084FF0000B21F00701AC46C8
:10059000ACE8C009ACE8C009ACE8C009ACE8C009E7
:1005A0008D46704710B50446AFF300802046BDE885
:1005B0001040FFF7D4BE0000004870478C030024B1
:1005C00001491820ABBEFEE7260002007047FEE797
:1005D000014800F085BD00008C020024294A016812
:1005E00091423AD0274A1832914236D0254A3032C9
:1005F000914232D0234A483291422ED0214A603271
:1006000091422AD01F4A7832914226D01D4A903218
:10061000914222D01B4AA83291421ED01A4A9142DE
:100620001BD0194A1832914217D0174A30329142E2
:1006300013D0154A483291420FD0134A603291428A
:100640000BD0114A7832914207D00F4A9032914232
:1006500003D00D4AA832914211D1CAB21823103AE0
:10066000B2FBF3F26FF30901032A02F00703074A12
:10067000D25CC26500D9091D81650846704721F02A
:10068000FF01F9E71000024010040240B4570008CF
:1006900030B5224A012301689142CAB21BD01F4CD7
:1006A0001434A14217D01D4C2834A14213D01B4C46
:1006B0003C34A1420FD0194C5034A1420BD0174CFE
:1006C0006434A14207D0154C7834A14203D0134CB6
:1006D0008C34A1420CD11421114C083AB2FBF1F137
:1006E0000F4A803201F01F0504EB8101AB4010E09E
:1006F0000C4D1824103A0D44B2FBF4F1A82D00D88B
:100700000831094A01F01F0402EB8101064AA340A7
:100710008032603080E80E0030BD0000085402587E
:1007200000580258F0FBFDBF0008024010B50279E6
:10073000531E072B2DD8174C0168A1421BD0154C16
:100740001434A14217D0134C2834A14213D0114CB9
:100750003C34A1420FD00F4C5034A1420BD00D4C71
:100760006434A14207D00B4C7834A14203D0094C29
:100770008C34A14203D10849074C443102E00749B7
:10078000064C443104EB8202C0E91B21012199404F
:10079000416710BD08540258FC580258FC0802403A
:1007A00010B583694FF0C074826A0146002053B1CE
:1007B000B3F5005F15D072B1012A0CD0022A0AD01D
:1007C000032A09D104E01AB1012A06D0022A03D172
:1007D000C96AC90100D5012010BDC96AA142FAD079
:1007E00010BD002AF7D0012AF2D0022AF3D0032A42
:1007F000F3D010BD704772B6FEE70000054805490A
:100800000839026842F00202026008688004FCD5E0
:10081000704700000C480258014801F075BB000009
:1008200018000024014801F06FBB0000B80000244C
:10083000014801F069BB000058010024F0B50368CD
:100840004FF6FC716D4C426BD3F884508D4345EAF2
:100850008205C3F88450036853F8845F068F25F43B
:100860007F0545EA06451D60836B654D9F1802684C
:10087000D2F888308B4343EA8703C2F88830026895
:1008800052F8883F868F23F4FE0343EA0643136041
:10089000066856F8A03FC26B8B4307EB420243EA5F
:1008A00082033360076857F8A03FB0F8406023F434
:1008B000FE0343EA06433B60D0E9103603FB062201
:1008C0000368D3F8B0608E4346EA8206C3F8B0608E
:1008D0000368B0F84860D3F8B07027F4FE0747EA21
:1008E0000646C3F8B060D0E91267036806FB07222A
:1008F000D3F8AC608E4346EA8206C3F8AC60D0E918
:100900001467036806FB0722D3F8F0608E4346EABB
:100910008206C3F8F0600368B0F85860D3F8F0704E
:1009200027F47C1747EA0646C3F8F0600368876D32
:1009300053F8C06F02EB47028E4346EA820119600A
:100940000168B0F85C20D1F8C03023F47C1343EA8E
:100950000242C1F8C020016890F86020D1F8C03090
:1009600023F07C5343EA0262C1F8C020416B04EBE0
:100970008101C166826B01EB82020267C36B02EBED
:10098000C3024267D0E91034634302EB83028267FB
:10099000D0E91234634302EB8302C267D0E9143416
:1009A000634302EB8302C0F88020836D02EBC30334
:1009B000C0F88430C46D826E544303EB8403C0F8E6
:1009C0008830046E544303EB8402C0F89020AA429E
:1009D0000AD9D0F89C20032142F02002C0F89C20C4
:1009E00080F898100120F0BD002200E004C1D0F88A
:1009F00090308B42FAD80020F0BD000000AC0040DF
:100A0000FCD30040F0B58E680C69D1E9005744EA88
:100A10000604DFB145F080452C43866ED1E906C55A
:100A20004F695E4391F8203045EA0C05B1F80CC0DF
:100A3000D0F884E0002047EA0363104F1D430EEB1B
:100A4000860345EA0C45E3E8024511E044EA8544A3
:100A5000E3E71418155CA67894F803C094F801E055
:100A6000360445EA0C6446EA0E252C43001D10C3EB
:100A7000CC683C5D8442ECD8F0BD000058570008BB
:100A80002DE9F04F8BB00F4600241D460821164675
:100A9000DDE91489069440F2411BCDE904410A9432
:100AA000A1218DF80010010A8DF806406A468DF8E4
:100AB00007408DF801408DF80400039407948DF8E9
:100AC00002402548089409948DF80340CDF808B0F9
:100AD0008DF8051002A901F0ABF8390A8DF8047001
:100AE0001D484FF4A17A6A46CDF808A08DF805108C
:100AF00002A901F09DF8310A8DF8046017486A4692
:100B0000CDF808B08DF8051002A901F091F8290A76
:100B10008DF8045011486A46CDF808A08DF80510EC
:100B200002A901F085F84FEA18238DF800308DF8FE
:100B300001804FF400724FEA19258DF802500848E1
:100B400002A902926A468DF80390019401F070F8B0
:100B50000BB0BDE8F08F000018000024B80000249E
:100B6000580100242DE9F84F044601F0F1FE0090F1
:100B70003CB194F83500022806D080216165002040
:100B8000E4E00120BDE8F88FC74DC74EC6491835CF
:100B900020683036DFF81483DFF814938842DFF8DA
:100BA00014A3DFF814B328D0A84226D0B04224D032
:100BB000404522D0484520D050451ED058451CD035
:100BC000BD4A1832904218D0BC4A904215D0BB4A58
:100BD0001832904211D0B94A303290420DD0B74A03
:100BE0004832904209D0B54A6032904205D0B34AAB
:100BF0007832904201D0B14A9032026822F001026C
:100C00000260206888422ED0A8422CD0B0422AD060
:100C1000404528D0484526D0504524D0584522D0BC
:100C2000A54A183290421ED0A44A90421BD0A34A33
:100C30001832904217D0A14A3032904213D09F4AC6
:100C4000483290420FD09D4A603290420BD09B4A6E
:100C50007832904207D0994A9032904203D0974A16
:100C6000A832904209D1026822F01E020260206878
:100C7000426922F08002426103E0026822F00E0223
:100C800002602768884938468F424DD0A8424BD031
:100C9000B04249D0404547D0484545D0504543D063
:100CA000584541D08449183188423DD08349884213
:100CB0003AD082491831884236D080493031884252
:100CC00032D07E49483188422ED07C4960318842FA
:100CD0002AD07A497831884226D0784990318842A2
:100CE00022D07649A83188421ED0754988421BD04F
:100CF00073491431884217D071492831884213D082
:100D00006F493C3188420FD06D49503188420BD039
:100D10006B496431884207D069497831884203D0F1
:100D200067498C318F4214D1206E016821F48071A3
:100D300001600EE001F00CFE0099401A052808D968
:100D4000202262650321002084F8351084F83400E5
:100D500017E73868C007EDD1534A01212068904257
:100D60002ED0A8422CD0B0422AD0404528D04845A9
:100D700026D0504524D0584522D04F4B18339842A6
:100D80001ED04E4B98421BD04C4B1833984217D074
:100D90004A4B3033984213D0484B483398420FD0D7
:100DA000464B603398420BD0444B7833984207D07F
:100DB000424B9033984203D0404BA833984208D11D
:100DC00094F85C703F23A06D07F01F07BB40836061
:100DD00007E094F85C30A06D03F01F0301FA03F301
:100DE0004360206890424DD0A8424BD0B04249D0D9
:100DF000404547D0484545D0504543D0584541D05F
:100E00002D4A183290423DD02C4A90423AD02B4A7B
:100E10001832904236D0294A3032904232D0274A96
:100E2000483290422ED0254A603290422AD0234A3E
:100E30007832904226D0214A9032904222D01F4AE6
:100E4000A83290421ED01E4A90421BD01C4A143237
:100E5000904217D01A4A2832904213D0184A3C3296
:100E600090420FD0164A503290420BD0144A64324E
:100E7000904207D0124A7832904203D0104A8C3206
:100E800090420BD1D4E919024260E06E30B10268A1
:100E900022F480720260D4E91C024260002084F8CF
:100EA000351084F834006DE610000240580002400E
:100EB0007000024088000240A0000240100402407E
:100EC000085402582DE9F05F28B190F83510022936
:100ED00004D0802141650120BDE8F09F764A764B21
:100EE000DFF8D4C1183201683033744CDFF8D0B168
:100EF0006145744D744E754FDFF8D4E1DFF8D4A12D
:100F0000DFF8D49131D091422FD099422DD0A14217
:100F10002BD0594529D0A94227D0B14225D0B9427A
:100F200023D0DFF8AC81A8F1780841451DD0DFF867
:100F3000A081A8F16008414517D0DFF89481A8F19D
:100F40004808414511D0DFF88881A8F130084145B3
:100F50000BD0DFF87C81A8F11808414505D0714518
:100F600003D0514501D049452AD14FF0040880F8FB
:100F7000358061451FD091421DD099421BD0A142BE
:100F800019D0594517D0A94215D0B14213D0B94252
:100F900011D04F48783881420DD04D486038814299
:100FA00009D04B484838814205D049483038814201
:100FB00001D047481838086820F00100086078E040
:100FC000D1F8008028F00108C1F800800168D1F84C
:100FD000008028F00E08C1F800800168614546D005
:100FE000914244D0994242D0A14240D059453ED08E
:100FF000A9423CD0B1423AD0B94238D0344A783ACA
:10100000914234D0324A603A914230D0304A483A24
:1010100091422CD02E4A303A914228D02C4A183A8C
:10102000914224D0714522D0514520D049451ED04F
:101030002A4A91421BD0294A1432914217D0274A9A
:101040002832914213D0254A3C3291420FD0234A94
:10105000503291420BD0214A6432914207D01F4A4C
:101060007832914203D01D4A8C32914218D1026EDF
:101070000121136823F48073136090F85C30826D53
:1010800003F01F0399405160D0E919124A60C16E04
:1010900031B10A6822F480720A60D0E91C124A60F9
:1010A0000122016D002380F8352080F8343001B131
:1010B0008847002010E7000010000240580002405E
:1010C0007000024088000240A0000240B8000240C8
:1010D00088040240A0040240B804024008540258A8
:1010E0002DE9FC5F0446F74E0020DFF8D88300901E
:1010F0004FF41652F44808F11808A56DDFF8C493B0
:10110000DFF8C0A3016809F1300920680AF1480A34
:10111000B1FBF2F1B04201912F68D5F800C0DFF8C1
:10112000ACB335D04146884232D0484530D05045E6
:101130002ED058452CD0E5491831884228D0E349B3
:101140003031884224D0E1494831884220D0E049FA
:1011500088421DD0DE491831884219D0DC4930312F
:10116000884215D0DA494831884211D0DFF860E36F
:101170000EF1600E70450BD0D54A7832904207D000
:10118000D34B9033984203D0D149A83188427DD1C6
:1011900094F85C20082102F01F0201FA02F23A42A0
:1011A0004AD0B04232D0404530D048452ED050458C
:1011B0002CD058452AD0C54A1832904226D0C34A6E
:1011C0003032904222D0C14A483290421ED0C04AAA
:1011D00090421BD0BE4A1832904217D0BC4A3032DF
:1011E000904213D0BA4A483290420FD0B84A603287
:1011F00090420BD0B64A7832904207D0B44A90322F
:10120000904203D0B24AA832904203D1026802F061
:10121000040202E0026802F008026AB1026822F0E9
:101220000402026094F85C0000F01F008140A96095
:10123000606D40F00100606594F85C00012100F0F1
:101240001F008140394240D02068B04234D0404530
:1012500032D0484530D050452ED058452CD09B4AEE
:101260001832904228D0994A3032904224D0974A7E
:101270004832904220D0964A90421DD0944A18326B
:10128000904219D0924A3032904200E0AFE113D040
:101290008F4A483290420FD08D4A603290420BD034
:1012A0008B4A7832904207D0894A9032904203D0DC
:1012B000874AA83290427DD1406910F0800F04D057
:1012C000A960606D40F00200606594F85C00042144
:1012D00000F01F00814039423ED02068B04232D039
:1012E000404530D048452ED050452CD058452AD0C6
:1012F000764A1832904226D0744A3032904222D038
:10130000724A483290421ED0714A90421BD0704AB5
:101310001832904217D06E4A3032904213D06C4A45
:10132000483290420FD06A4A603290420BD0684AED
:101330007832904207D0664A9032904203D0644A95
:10134000A83290424ED1006810F0020F04D0A9607C
:10135000606D40F00400606594F85C00102100F0BE
:101360001F008140394258D02068B04234D04045F7
:1013700032D0484530D050452ED058452CD0534A15
:101380001832904228D0514A3032904224D04F4AED
:101390004832904220D04E4A90421DD04C4A1832DA
:1013A000904219D04A4A3032904215D0484A4832C9
:1013B000904200E014E00FD0454A603290420BD0DA
:1013C000434A7832904207D0414A9032904203D04B
:1013D0003F4AA832904207D1006800F0080006E0BA
:1013E000006872E70068B7E7006800F00400A0B189
:1013F000A96020680168490304D50068000308D586
:10140000A16C07E00168C90503D4016821F0080157
:101410000160216C09B12046884794F85C002021C6
:1014200000F01F008140394279D02068B04232D0AC
:10143000404530D048452ED050452CD058452AD074
:10144000224A1832904226D0204A3032904222D08E
:101450001E4A483290421ED01D4A90421BD01C4A60
:101460001832904217D01A4A3032904213D0184A9C
:10147000483290420FD0164A603290420BD0144A44
:101480007832904207D0124A9032904203D0104AEC
:10149000A832904203D1006800F0100002E000681A
:1014A00000F00200B0B3A96094F835000428206869
:1014B00001680FD049037ED5006800032BD5616C0D
:1014C0002AE00000100002401000002470000240DA
:1014D0001004024021F0160101602068416921F0EA
:1014E00080014161206C08B9A06C20B120680168BE
:1014F00021F00801016094F85C303F21012003F0E5
:101500001F0300229940A96084F8350084F8342034
:10151000216D65E003E0E16B09B120468847606D0D
:1015200000287DD0606DC00759D02068042184F860
:101530003510B0422BD0404529D0484527D05045E2
:1015400025D0584523D09D49884220D09B49183149
:1015500088421CD099493031884218D09849884235
:1015600015D097491831884211D0954930318842B9
:101570000DD093494831884209D091496031884261
:1015800005D08F497831884201D08D49903101686A
:1015900021F00101016020680099019A491C009125
:1015A000914202D80168C907F6D10068C00710D07F
:1015B00003200FE0FFE70168C905ACD403680121EF
:1015C000002223F01003036084F8351084F83420DF
:1015D000A1E7012084F83500002084F83400E16C94
:1015E00000291DD002B02046BDE8F05F08477549CC
:1015F00088421DD073491431884219D0714928316D
:10160000884215D06F493C31884211D06D49503124
:1016100088420DD06B496431884209D0694900E0A5
:1016200084E07831884203D066498C3188427DD18C
:1016300094F85C800427016808F01F0807FA08F78F
:1016400017EA0C0F009746D04F0744D500980F04B7
:10165000686003D5C8033CD5A16CC1E7880638D4BF
:101660002068B0422DD055496039884229D048457C
:1016700027D0504525D0584523D05049884220D006
:101680004E49183188421CD04C493031884218D01C
:101690004B49884215D04A491831884211D04849EF
:1016A000303188420DD046494831884209D07045D2
:1016B00007D0904205D0984203D04149A8318842D2
:1016C00003D1016821F0080102E0016821F0040162
:1016D0000160216C84E7022707FA08F717EA0C0F6C
:1016E00000974ED08F074CD500980F04686003D543
:1016F000C80344D4616C73E7880640D42068B042C4
:101700002FD02E49603988422BD0484529D05045EA
:1017100027D0584525D02949884222D02749183159
:1017200088421ED025493031884200E044E018D07C
:101730002349884215D022491831884211D02049C6
:10174000303188420DD01E494831884209D0704559
:1017500007D0904205D0984203D01949A831884259
:1017600003D1016821F0140102E0016821F00A01AF
:101770000160012184F83510002084F83400E16B09
:101780002EE7082202FA08F212EA0C0F14D0090719
:1017900012D5016821F00E01016094F85C1001205F
:1017A000002201F01F0100FA01F16960606584F810
:1017B000350084F8342012E7BDE8FC9F8800024021
:1017C00010040240085402582DE9F05F044601F06D
:1017D000BFF8002C07467DD0E24E022120684FF072
:1017E0000308DFF884934FF00005DFF880A3B042D0
:1017F000DFF87CB334D0DB4A1832904230D0484511
:101800002ED050452CD058452AD0D94A1832904273
:1018100026D0D74A3032904222D0D54A4832904220
:101820001ED0D44A90421BD0D24A1832904217D0D0
:10183000D04A3032904213D0CE4A483290420FD034
:10184000CC4A603290420BD0CA4A7832904207D0DC
:10185000C84A9032904203D0C64AA83290427DD105
:1018600084F83510B04284F834502ED0BD49183178
:1018700088422AD0484528D0504526D0584524D003
:10188000BB491831884220D0B949303188421CD038
:10189000B7494831884218D0B649884215D0B54971
:1018A0001831884211D0B349303188420DD0B14946
:1018B0004831884209D0AF496031884205D0AD49EE
:1018C0007831884201D0AB499031016821F00101A3
:1018D000016008E025E100BF01F03AF8C01B0528CF
:1018E00001D920211AE120680068C007F4D1D4E9A9
:1018F00002032168103418438E4694E88410D4E91A
:10190000033809683A4310439B4A40EA0C00676970
:1019100018431140103C40EA0800042F40EA01003F
:1019200003D1D4E90B12114308436168A1F12902E4
:10193000052A0BD9163A032A08D9083A012A05D9EB
:10194000083A032A02D97439032901D840F48010D7
:10195000CEF800002068676A406900E020E0042FAC
:1019600020F0070047EA00070DD1D4E90A01074338
:1019700049B12046FEF714FF28B1402060650121DF
:1019800084F83510CDE0206847612046FEF726FE3A
:1019900094F85C203F2102F01F029140816055E0E5
:1019A000764A90421BD0754B1433984217D0734B34
:1019B0002833984213D0714B3C3398420FD06F4B71
:1019C000503398420BD06D4B6433984207D06B4B29
:1019D0007833984203D0694B8C3398427ED184F897
:1019E000351084F83450664B0168A26801EA030E92
:1019F000402A74D0802A73D05FF00002D4E90378C3
:101A0000D4E9053142EAD70242EAD8085B4AD4E970
:101A1000077C48EAD30848EAD10141EAD70152429B
:101A200041EA1C11142341EA0E01016020681044B0
:101A3000B0FBF3F08000E0652046FEF7CFFD94F8A0
:101A40005C20012102F01F02914041602068B042F9
:101A500057D044491831884253D0484551D0504559
:101A60004FD058454DD042491831884249D040495D
:101A70003031884245D03E494831884241D03D49C5
:101A800088423ED03B49183188423AD039493031FA
:101A9000884236D037494831884232D035496031A2
:101AA00088422ED03349783188422AD0314990314A
:101AB000884226D02F49A831884222D02F49884217
:101AC0001FD02E49143188421BD02C49283188421E
:101AD00017D02A493C31884213D002E01DE017E0BC
:101AE00018E02649503188420BD02449643188429D
:101AF00007D022497831884203D020498C3188426E
:101B000029D12046FEF7C4FDA06880280CD00CE047
:101B1000102273E74FF4804270E74021616584F83A
:101B200035800120BDE8F09F6560216E2079086056
:101B3000D4E9190141606068401E072808D8204692
:101B4000FEF7F4FDE06E0560D4E91C01416002E09F
:101B5000E566256765670120656584F83500002026
:101B6000E0E7000010000240400002405800024040
:101B700070000240100402403F8010FE08540258DA
:101B80000F00FEFF70B5044600F0E2FE0546601C43
:101B900002D004480078044400F0DAFE401BA04262
:101BA000FAD370BD0400002410B590F89830012BD2
:101BB00009D0022B07D0D0F89C1041F00201C0F8E8
:101BC0009C10012010BD03689C6D0C4203D1DC6D9C
:101BD00044F0010404E09C6D31EA04041FD00324A6
:101BE000DC658B0505D50368D3F8E0401443C3F8E2
:101BF000E0404B0505D50368D3F8E4401443C3F82F
:101C0000E4400068084A01EA0203446D074A1C43A5
:101C10004465106840EA91701060002010BDDC6DD2
:101C200044F00204DCE70000FFFFCF3F14A80040AF
:101C300070B5044690F89800022804D0D4F89C00AF
:101C400040F008000DE02068D0F8C03013F07C5F51
:101C50000BD0D0F8C4309B020CD5D4F89C0040F4D3
:101C60000070C4F89C00012070BDD4F89C0040F0C6
:101C70002000F6E7D0F8C400C0F3044520462B4608
:101C8000FEF7C0FE21680120A840C1F8D000C4F8CA
:101C90009400002070BD704770B590F89820012A1C
:101CA00009D0022A07D0D0F89C1041F00201C0F8F8
:101CB0009C10012070BD0B68CA6883B10B69072AAC
:101CC00043EA427325D00C7A4A6942EA8472496831
:101CD000006F00EBC100C0E90032002070BD072A90
:101CE0000DD00C7AD6060D8A4B6943EA847246EA17
:101CF0000543C06E49681A4340F82120EDE70B8A7E
:101D00004FF06055D1E9062442EA034245EA042334
:101D1000EFE78A69DBE730B590F89850039C012D16
:101D200007D0D0F89C1041F00401C0F89C100120AD
:101D300030BD0D01016845EA820040EA43002043BE
:101D4000C1F88000002030BD70477047006840290E
:101D500005D0D0F8B40000BF00F07F007047D0F885
:101D6000A400F9E7F0B590F898500024022D04D0B3
:101D7000D0F89C1041F0080130E0402905D04129FD
:101D800030D0056D8D4220D94DE00568D5F8A040D2
:101D900014F4FE0F19D0D5F8A44064061AD0D5F873
:101DA000A440D5F8A460C4F30524F6010AD5D5F8FB
:101DB000A06016F0004F05D5D5F8A050641CC5F3FF
:101DC00006452C40466F456C2BE0D0F89C1041F046
:101DD000200103E0D0F89C1041F48071C0F89C1001
:101DE0000120F0BD0568D5F8B04014F4FE0FECD02A
:101DF000D5F8B4406406EDD0D5F8B440D5F8B46059
:101E0000C4F30524F6010AD5D5F8B06016F0004FEA
:101E100005D5D5F8B050641CC5F306452C40866F37
:101E2000C56C654302E0456DC66F4D4306EB850505
:101E30002E6816F0804656602E6836D026F0604632
:101E40001660D5F800C000262D4F0CF0005CC2F8DB
:101E500008C0D5F800C00CF0004CC2F810C0B5F8AE
:101E600004C01FFA8CFCC2F81CC0D5F804C0CCF327
:101E7000034CC2F80CC0D5F804C00CF4801CC2F8A6
:101E800014C0D5F804C00CF4001CC2F818C0D5F872
:101E900004C0CCF3066CC2F820C0D5F804C00835E5
:101EA0004FEADC7CC2F824C007E0C6F38A46C7E7E5
:101EB00015F806C003F806C0761CD2F80CC017F857
:101EC0000CC0B445F4D840290AD041290CD02029AF
:101ED0004FF001020CD200688A40C0F898200DE053
:101EE0000068C0F8A84009E00068C0F8B84005E004
:101EF000006801F01F018A40C0F89C200020F0BD5E
:101F000058570008704700002DE9FF5FDFF80CB359
:101F100004460BF10401DBF8000025680F68AA46AF
:101F20008007D5F85090696DD5F850806E6D2A6D98
:101F3000D5F854C02B6D00EA8770009009F4704901
:101F40006F6D286D01EA09010191DAF85410DAF891
:101F50005490DAF8505008F00F0806EA0806029686
:101F600002F0F00203F071536FEA09061F4000F01F
:101F700060700CEA020CCDF80CC0F20501EA000911
:101F80000CD4E843C00509D400214FF48073CAF88B
:101F90005030CBF800102046FFF7B4FF700512D484
:101FA000E84340050FD4206800234FF48068D0F840
:101FB000DC20D0F8E410C0F85080CBF8003011409D
:101FC000204600F0AFFBDFF858A2009850B122681D
:101FD000830F00EA0A001065CBF800302046009914
:101FE000FFF759FE019850B12268830F00EA0A00FA
:101FF0001065CBF800302046019900F095FB02985F
:1020000050B12268830F00EA0A001065CBF8003057
:102010002046029900F0FAFA039850B12268830F23
:1020200000EA0A001065CBF800302046039900F062
:1020300059FB30050CD4E843000509D4236800207F
:102040004FF400621A65CBF80000204600F06DFBEB
:10205000B00512D4E84380050FD4206800234FF464
:102060000078D0F8D820D0F8E010C0F85080CBF835
:1020700000301140204600F056FB30030CD4E843FA
:10208000000309D4236800204FF400221A65CBF81E
:102090000000204600F0B8FAF0030CD4E843C00377
:1020A00009D4236800204FF480321A65CBF8000071
:1020B000204600F036FB70030CD4E843400309D4FB
:1020C000226800204FF480231365CBF800002046DF
:1020D00000F026FBB0030FD4E84380030CD4236840
:1020E00000204FF400321A65CBF80000D4F89C00B1
:1020F00040F08000C4F89C00B9F1000F0BD02268BA
:102100004FEA997309EA0A001065CBF80030494696
:102110002046FFF71AFE5FB12268BB0F07EA0A00EC
:102120001065CBF80030D4F89C003843C4F89C000C
:102130003C492068884268D1606881468068800791
:1021400063D0D9F82060D9F82410D9F82080D9F8C4
:102150002400D9F820C0D9F82470D9F82030D9F853
:102160002450D9F8202003F4FC4306F00F0AD9F8D4
:1021700024601D40D9F824B008F030080CF4C07C6D
:1021800002F4F02211EA0A0100EA080807EA0C0743
:1021900006EA0206D9F820A004D0C9F8201020468B
:1021A00000F0BBFAB8F1000005D061680862414652
:1021B000204600F0B4FA6FEA0B0040060ED46FEA36
:1021C0000A0040060AD460684021C36BC26B0162FA
:1021D0002046190C02F03F0200F0A0FA2FB160680F
:1021E00007623946204600F097FA35B1606805620B
:1021F000D4F89C002843C4F89C0036B1606806629D
:10220000D4F89C003043C4F89C00D4F89C0000280B
:1022100002D02046FFF798FDBDE8FF9F10A80040C0
:10222000FFFFCF3F00A000402DE9F04194B08D4961
:102230004C2204466846FEF734F964B18A4D2068A2
:10224000A84202D100F58070606094F898004FF0C9
:10225000000820B108E0012014B0BDE8F08120465C
:1022600084F8998000F002F92068816921F010015A
:10227000816100F06DFB0327064604E000F068FB77
:10228000801B0A2811D8206880690007F6D42068CE
:10229000816941F00101816100F05AFB06460DE0C1
:1022A00000F056FB801B0A2808D9D4F89C0040F0A7
:1022B0000100C4F89C0084F89870CCE7206880691D
:1022C000C007EDD02068816941F002018161207C66
:1022D00001282068816937D041F040018161607C2C
:1022E00001282068816932D021F480418161A07C7D
:1022F0000128206881692DD041F4805181612068D6
:10230000A268816921F4407111438161206881696B
:1023100021F0A40181612068016921F010010161AF
:10232000E068012819D010B302281BD02068816909
:1023300041F0800181612068016941F01001016173
:10234000E06803280ED012E021F04001C6E741F416
:102350008041CBE721F48051D0E72068816941F0CA
:10236000040103E02068816941F020018161207E41
:102370006FF0FF02D4E90773A68A1102400602EB50
:102380000727A0F10070384327685B1E184301EB54
:1023900006463043F861A068B0F5407F11D104F1E2
:1023A0002800A68C6FF00F0C89C801EB0641401E77
:1023B00002EB0322104322680CEB07131843084377
:1023C000D060206E30B12068626ED0F8C01011432A
:1023D000C0F8C010D4E917126846D14209D021686C
:1023E000A36E51F8C82F50F8233022F007021A4389
:1023F0000A60216C49B12168626C51F8BC3F50F809
:10240000226023F0070232430A60A16C51B12168B7
:10241000E36C51F8BC2F50F8233022F0700242EAEE
:1024200003120A60216D51B12168626D51F8BC3F01
:1024300050F8220023F4E06242EA0020086020689D
:10244000A84204D16068816821F003018160C4F86A
:1024500094800121C4F89C8084F898102046FEF7EF
:10246000EDF9F9E66857000800A000402DE9F047B3
:10247000B4B0814614212EA8FEF745F8B82168466D
:10248000FEF741F85A4C0026D9F800004FF0805171
:10249000584A0C3C554F4FF00208554D9042DFF81A
:1024A00058A14FF0090930D100201B914A13CDE902
:1024B0000020684600F09CFC08B1FEF79CF93868E3
:1024C000401C3860012807D1286840F480702860DB
:1024D000286800F480703390206840F00800206085
:1024E000206803222E922EA900F00800CDE92F8645
:1024F0003196CDE93290504600F018F900221320B1
:10250000114600F0C3FA132033E03C4A904235D123
:1025100000201B914FF40042CDE90020684600F0F6
:1025200067FC08B1FEF767F93868401C386001287D
:1025300007D1286840F480702860286800F4807013
:102540003390206840F002002060206860222E92C4
:102550002EA900F00200CDE92F863196CDE9329008
:10256000274800F0E3F800221420114600F08EFA0C
:10257000142000F07DFA34B0BDE8F087214A904283
:10258000F9D100201B914FF40042CDE900206846AC
:1025900000F02EFC08B1FEF72EF93868401C3860B8
:1025A000012807D1286840F480702860286800F46A
:1025B00080703390206840F00800206020684FF45D
:1025C00040512E91052200F00800CDE92F862EA95A
:1025D0003196CDE93220504600F0A8F800229F2025
:1025E000114600F053FA9F20C3E7000000000024CA
:1025F000EC44025800A00040000C025800A4004027
:102600000004025800D400407047000030B5324C3E
:102610008DB0054657E040216A460AAB2846FFF7D1
:10262000A1FB2E48854225D10098A0F58070413845
:1026300002D0012847D10EE020882081BDF82E006D
:102640002080BDF82C006080BDF82A00A0809DF895
:102650002900A07137E0A08AA083BDF82E00A082D7
:10266000BDF82C00E082BDF82A0020839DF82900E7
:10267000A07628E01A48854225D10098A0F5807000
:10268000413802D001281ED10EE060896082BDF879
:102690002E006081BDF82C00A081BDF82A00E081E9
:1026A0009DF8290020740EE0E08BE084BDF82E0038
:1026B000E083BDF82C002084BDF82A0060849DF8DA
:1026C000290084F8240040212846FFF73FFB00281A
:1026D000A1D10DB030BD000050030024180000242B
:1026E000B8000024704790F89810012907D0D0F85E
:1026F0009C1041F00401C0F89C1001207047022199
:1027000080F89810002201688B6923F001038B6127
:10271000C0F89C201046704770477047704770475C
:102720007047704770477047704770472DE9F84F02
:1027300003247C4D00234FF001094FF0B04B4FF0C4
:102740000F0AE7E009FA03F632407BD00F7907F071
:102750000307012F01D0022F1AD187684FEA430ED9
:10276000D1F80CC004FA0EF827EA08070CFA0EFCA0
:102770004CEA070CC0F808C0476891F804C0B7439A
:10278000CCF3001C0CFA03FC4CEA070CC0F804C0A4
:102790000E79F643B60702D18E68012E0BD0C768BA
:1027A0004FEA43088E6804FA08FC27EA0C0706FA89
:1027B00008F63E43C6600E7906F00306022E12D1DB
:1027C000DE080F694FEA437C00EB8606B646366AA0
:1027D0004FEADC6C0AFA0CF807FA0CF726EA08064E
:1027E0003743CEF820700F7906684FEA430807F0A8
:1027F000030704FA08FC07FA08F726EA0C06374331
:1028000007604E6816F4403F1CD0474E376847F0CB
:102810000207376036689F0706F00206009623F02D
:10282000030606F1B046B6463F0FD6F80864DFF857
:10283000FC800AFA07FC404526EA0C0603D14FF05B
:10284000000C3AE065E0DFF8E8C0604502D14FF0E7
:10285000010C32E0DFF8DCC0604502D14FF0020C21
:102860002BE0DFF8D4C0604502D14FF0030C24E028
:10287000DFF8C8C0604502D14FF0040C1DE0DFF85E
:10288000C0C0604502D14FF0050C16E0DFF8B4C0BF
:10289000604502D14FF0060C0FE0DFF8ACC0604598
:1028A00002D14FF0070C08E0DFF8A0C0604502D16C
:1028B0004FF0090C01E04FF00A0C0CFA07FC4CEA4F
:1028C000060CCEF808C44F68DBF80060FF0226EA69
:1028D000020600D516435F46CBF80060D1F804C06D
:1028E000DBF804605FEA8C2C26EA020600D516436A
:1028F0007E606E684F6826EA0206BF0300D5164365
:102900006E602E684F6826EA0206FF0300D5164364
:102910002E605B1C0A6832FA03F67FF413AFBDE841
:10292000F88F000080000058F4440258000002585C
:102930000004025800080258000C02580010025807
:102940000014025800180258001C025800240258B3
:102950000148806870470000040000240248816834
:10296000027811448160704704000024032010B5F0
:1029700000F0ACF801F07CF80F4A104914681368B5
:10298000C4F3032203F00F038A5CC95C02F01F0248
:1029900001F01F01D0400A4A20FA01F111600949F3
:1029A00008600F2000F010F808B1012010BD00F001
:1029B00051F8002010BD000018440258E4570008E8
:1029C000140000241000002410B5102804468AB01A
:1029D0002DD2002201461C2000F058F81C2000F0E7
:1029E00047F8184804601848016841F00101016087
:1029F000006809A900F001000890684600F0C4FFD3
:102A00000598B8B101F010F840001049002240F2DA
:102A1000E733B0FBF1F10E484FF080440460C0E9A9
:102A20000332491EC0E9011201F054FB28B1012014
:102A30000AB010BD00F0F8FFE7E7054801F07CFBA5
:102A4000F6E7000008000024E844025840420F0066
:102A500004030024054808B5016841F00201016043
:102A6000006800F00200009008BD0000F444025825
:102A7000002809DB410900F01F028900012001F153
:102A8000E0219040C1F80001704700000E4BF0B407
:102A90001B680D46C3F30223C3F10706042E00D9B9
:102AA0000426191D072901D2002300E0DB1E0124A2
:102AB00004FA06F19C40491E2940641E99401440C6
:102AC0002143F0BC02F0D9BD0CED00E0064900F056
:102AD000070210B54FF6FF040868044B204040EA97
:102AE00002201843086010BD0CED00E00000FA055C
:102AF000134970B50A68D243520705D5096801F039
:102B00000701814213D118E00A6822F0070202434C
:102B10000A60FFF71DFF0A4D4FF47A760446083D20
:102B200007E000BFFFF714FF001BB04201D90120EE
:102B300070BD2868C0438004F4D4002070BD00003C
:102B40000C48025810B500F04DFF05490968054AC8
:102B5000C1F30211515C01F01F01C84010BD00001B
:102B600020440258E4570008494930B5484C0B1D31
:102B70000A68143409681D68246802F00303C5F369
:102B80000012C1F30531C4F3CC04002914FB02F296
:102B900000EE102AF8EE400A75D03F4A9FED3D1A2C
:102BA000B7EE000A6BB1DFED3D1A012B01D0022B0D
:102BB00064D002EE101A1168F8EE422A81EEA22AC1
:102BC00021E0334C283C23689B0612D5344B246803
:102BD00001EE901A1168C4F3C104F8EE612AE340D3
:102BE00001EE903AC1F30801F8EE611A81EEA22AD3
:102BF0000BE001EE901ADFED2B2A00BFF8EE611A10
:102C0000116882EEA12AC1F3080101EE901A116841
:102C1000F8EE611A40EE811A71EE800A62EE200A27
:102C2000C1F3462101EE101AB8EE411A31EE001A36
:102C3000C0EE811ABCEEE11A80ED001A1168C1F3F2
:102C4000064101EE101AB8EE411A31EE001AC0EE3C
:102C5000811ABCEEE11A80ED011A1168C1F3066118
:102C600001EE101AB8EE411A31EE000A80EE801A19
:102C7000BCEEC10A80ED020A30BD04E001EE901AFC
:102C8000DFED092ABAE70021016041608160F3E7C6
:102C90002844025800000039384402580024744A7D
:102CA0000090D0030024744C001BB74B494930B549
:102CB000484C0B1D0A681C3409681D68246802F022
:102CC0000303C5F30022C1F30551C4F3CC0400296A
:102CD00014FB02F200EE102AF8EE400A75D03F4ACB
:102CE0009FED3D1AB7EE000A6BB1DFED3D1A012BE7
:102CF00001D0022B64D002EE101A1168F8EE422ABD
:102D000081EEA22A21E0334C283C23689B0612D591
:102D1000344B246801EE901A1168C4F3C104F8EE34
:102D2000612AE34001EE903AC1F30801F8EE611A1E
:102D300081EEA22A0BE001EE901ADFED2B2A00BFF4
:102D4000F8EE611A116882EEA12AC1F3080101EEC2
:102D5000901A1168F8EE611A40EE811A71EE800A3D
:102D600062EE200AC1F3462101EE101AB8EE411AB4
:102D700031EE001AC0EE811ABCEEE11A80ED001AA5
:102D80001168C1F3064101EE101AB8EE411A31EE96
:102D9000001AC0EE811ABCEEE11A80ED011A11682A
:102DA000C1F3066101EE101AB8EE411A31EE000AC5
:102DB00080EE801ABCEEC10A80ED020A30BD04E04C
:102DC00001EE901ADFED092ABAE7002101604160A7
:102DD0008160F3E72844025800000039404402585B
:102DE0000024744A0090D0030024744C001BB74B9D
:102DF0002DE9FE4F0546DFF800A450F8081B00241B
:102E0000FD4FC943019005F1280026460AF1240A26
:102E1000009008011DD4686E50B1B0F5801F0CD031
:102E2000B0F5001F0ED0B0F5401F1ED001240FE0FA
:102E3000386840F40030386017E00198022101F052
:102E400083FE03E00098022101F00EFF04000CD085
:102E500026462888C043C00523D4A86D05281ED265
:102E6000DFE800F00C11161B1B006A6EDAF8001088
:102E700021F440111143CAF80010EAE7386840F421
:102E80000030386009E00198002101F05DFE03E0A8
:102E90000098002101F0E8FE0446C4B100E00124DE
:102EA00026462888DFF85083C04308F12C084005E7
:102EB0002FD4D5F8A400B0F5C00F28D010DCB8B1DD
:102EC000B0F5001F19D0B0F5800F0FD11AE0AA6D30
:102ED000DAF8001021F007011143CAF80010E0E70A
:102EE000B0F5000F13D0B0F5200F10D001240FE083
:102EF000386840F40030386009E00198002101F0A2
:102F000023FE03E00098002101F0AEFE044694B1D8
:102F100026462888C043000530D4D5F8A800B0F173
:102F2000407F29D011DCC0B1B0F1807F1AD0B0F160
:102F3000007F10D11BE0D5F8A420D8F8001021F4B0
:102F400060011143C8F80010E3E7B0F1806F13D0BF
:102F5000B0F1A06F10D001240FE0386840F40030C9
:102F6000386009E00198002101F0EEFD03E00098CF
:102F7000002101F079FE044694B126462868DFF866
:102F800078B2C0430BF1200B80011FD4E86CD8B19C
:102F900010280FD0202812D0302815D0012414E09A
:102FA000D5F8A820D8F8001021F0E0611143C8F846
:102FB0000010E3E7386840F40030386004E001981E
:102FC000022101F0C1FD044674B126462888C043A1
:102FD000C0042BD4E86DB0F5005F20D00DDCA0B1AB
:102FE000B0F5805F0FD115E0EA6CDBF8001021F03E
:102FF00030011143CBF80010E8E7B0F5405F13D083
:10300000B0F5804F10D001240FE0386840F4003054
:10301000386009E00198002101F096FD03E0009876
:10302000002101F021FE04468CB126462888C043C9
:10303000800429D4286EB0F5403F23D010DC08B3BB
:10304000B0F5803F14D0B0F5003F0FD115E0EA6D28
:10305000DAF8001021F4E0411143CAF80010E5E766
:10306000B0F5802F0ED0B0F5A02F0BD001240AE0D0
:103070000198012101F068FD03E00098012101F0B1
:10308000F3FD044694B126462888C04340042AD460
:10309000D5F8AC00B0F1405F23D010DC08B3B0F13C
:1030A000805F14D0B0F1005F0FD115E02A6EDAF81E
:1030B000001021F4E0211143CAF80010E4E7B0F158
:1030C000804F0ED0B0F1A04F0BD001240AE0019840
:1030D000012101F039FD03E00098012101F0C4FD58
:1030E000044674B126462888C04300041FD4E86E05
:1030F000D8B1B0F1805F0ED0B0F1005F10D00124E4
:1031000014E0D5F8AC20D8F8001021F0E0411143CC
:10311000C8F80010E7E7386840F40030386004E091
:103120000198012101F010FD044674B1264628687B
:10313000C043C0011ED4A86CD0B101280ED0022813
:1031400011D0032814D0012413E0EA6EDAF800103D
:1031500021F040511143CAF80010E8E7386840F404
:103160000030386004E00198022101F0EDFC0446D3
:103170006CB126462868C043400255D41F480168F8
:1031800041F480710160FFF7E3FB81460EE0AA6C19
:10319000DBF8001021F003011143CBF80010E9E740
:1031A000FFF7D6FBA0EB090064283BD81348006862
:1031B000C005F5D5BCBBDFF84090B5F8B01009F1FB
:1031C0004409D9F8000001F4407100F440708842CD
:1031D00011D0D9F80010D9F8002021F4407142F440
:1031E0008032C9F80020D9F8002022F48032C9F8D2
:1031F0000020C9F8001003E02C440258004802588F
:10320000D5F8B000B0F5807F19D1FFF7A1FB02908F
:1032100011E000BFFFF79CFB0299411A41F2883090
:10322000814208D9032426462878DFF81494C04345
:10323000C00721D03CE0D9F800008007EAD5D5F8D6
:10324000B010C1F301200328FE480DD0016821F41D
:103250007C510160B5F8B020D9F80010C2F30B0220
:103260001143C9F80010DFE7F74A036802EA1112B8
:1032700023F47C511143ECE7A86F182816D005DC25
:10328000A0B1082808D0102804D10AE020280DD0C9
:1032900028280BD001240AE00198012101F054FCF8
:1032A00003E00098012101F0DFFC044664B12646EA
:1032B0002878C04380071ED4686F062819D2DFE83B
:1032C00000F0160C11161616AA6FD9F8001021F08E
:1032D00038011143C9F80010EAE70198012101F013
:1032E00033FC03E00098012101F0BEFC04467CB1F0
:1032F00000E0012426462878C04340071FD4D5F8B3
:103300009000062819D2DFE800F0160C11161616E8
:103310006A6FD9F8001021F007011143C9F80010B5
:10332000E9E70198012101F00FFC03E00098012179
:1033300001F09AFC0446A4B100E001242646287856
:10334000C04380062BD4D5F88C00B0F1405F24D068
:1033500011DC10B3B0F1805F15D0B0F1005F10D177
:1033600016E0D5F89020D8F8001021F0070111439D
:10337000C8F80010E3E7B0F1804F0ED0B0F1A04FD5
:103380000BD001240AE00198002101F0DDFB03E0ED
:103390000098022101F068FC044694B12646287882
:1033A000C04340062BD4D5F89800B0F5406F24D028
:1033B00011DC10B3B0F5806F15D0B0F5006F10D1EF
:1033C00016E0D5F88C20D9F8001021F0E041114327
:1033D000C9F80010E3E7B0F5805F0ED0B0F5A05F4C
:1033E0000BD001240AE00198002101F0ADFB03E0BD
:1033F0000098022101F038FC044694B12646287852
:10340000C04300062BD4D5F89C00B0F5C04F24D0A3
:1034100011DC10B3B0F5005F15D0B0F5804F10D1BE
:1034200016E0D5F89820D8F8001021F4E0511143A7
:10343000C8F80010E3E7B0F5004F0ED0B0F5204F0C
:103440000BD001240AE00198002101F07DFB03E08C
:103450000098022101F008FC044654B12646287861
:10346000C04300071ED4D5F88000B0F5805F0AD0B5
:103470000FE0D5F89C20D8F8001021F460411143EA
:10348000C8F80010EBE70098022101F0EDFB00B155
:103490000126D5F88020D9F8001021F440511143BD
:1034A000C9F800102878C043C00613D4D5F894009A
:1034B000B0F5807F05D10098022101F0D5FB00B165
:1034C0000126D5F89420D8F8001021F4407111435A
:1034D000C8F800102868C043000316D4D5F8A0002F
:1034E00038B1B0F5803F09D0B0F5003F0BD00124D2
:1034F0000AE00198002101F027FB03E00098022177
:1035000001F0B2FB04468CB126462868C043400354
:1035100022D4D5F88400B0F5801F11D0B0F5001F7B
:1035200013D0B0F5401F15D0012414E0D5F8A02029
:10353000D8F8001021F440311143C8F80010E4E736
:10354000386840F40030386004E00098012101F050
:103550008BFB04465CB126462868C043C0031CD4DC
:10356000286D70B1B0F5803F10D0012414E0D5F87B
:103570008420D9F8001021F440111143C9F800103B
:10358000EAE7386840F40030386004E0019802212E
:1035900001F0DAFA0446DCB126462868C043800010
:1035A00005D40098022101F05FFB00B101262868D4
:1035B000C04380031BD4E86FB8B1B0F5807F10D052
:1035C000B0F5007F11D0B0F5407F0ED001240DE0A2
:1035D0002A6DDBF8001021F480311143CBF8001084
:1035E000DBE7386840F4003038607CB32646286852
:1035F000C043C00207D42A6FDAF8001021F000415E
:103600001143CAF800102868C043800207D4AA6E8C
:10361000DAF8001021F080711143CAF80010286810
:10362000C043400009D40748016821F4004101600B
:103630000168D5F8B420114301602868C04306E052
:103640005444025810440258CFFFFF001DE007D435
:103650006A6DDBF8001021F040511143CBF80010E7
:103660002868C043000208D4D5F88820D9F8001093
:1036700021F440011143C9F8001028790024C04307
:1036800000F00100204309D00EE0EA6FD9F80010E5
:1036900021F440711143C9F80010A8E701980021F6
:1036A00001F052FA00B106462879C04300F002004A
:1036B000204305D10198012101F046FA00B10646E8
:1036C0002879C04300F00400204305D1019802216D
:1036D00001F03AFA00B106462879C04300F008002C
:1036E000204305D10098002101F0BEFA00B1064642
:1036F0002879C04300F01000204305D10098012133
:1037000001F0B2FA00B106462879C04300F020006B
:10371000044304D10098022101F0A6FA00B916B1C1
:103720000120BDE8FE8F0020FBE700002DE9F05FDF
:1037300004000F467ED0DFF83882D8F8000000F091
:103740000F00B8420CD2D8F8001021F00F01394315
:10375000C8F80010D8F8000000F00F00B84269D196
:103760002078844D40070AD52069296801F070014E
:10377000884204D9296821F070010143296020782A
:103780007C4E361D00070AD56069316801F0700172
:10379000884204D9316821F07001014331602078FA
:1037A000C0060AD5A069316801F4E061884204D9F5
:1037B000316821F4E061014331602078DFF8B4B171
:1037C00080060BF1080B0CD5E1695846DBF80020A8
:1037D00002F07002914204D9026822F070020A439A
:1037E0000260207880070AD5E068296801F00F019F
:1037F000884204D9296821F00F010143296020780B
:10380000C0073ED05B49A2682868183920F4706070
:10381000104328606068022818D0032819D009686E
:10382000012819D0490700294ADADFF848A1AAF18E
:10383000080A00E044E0DAF8002022F00702024320
:10384000CAF80020FFF784F8814612E0096889036E
:10385000E9E709688901E6E7C905E4E7FFF778F8D1
:10386000A0EB090141F28830814202D90320BDE872
:10387000F09F6168DAF8000000F03800B0EBC10F8B
:10388000ECD1207880070AD5E068296801F00F01A3
:10389000884204D2296821F00F0101432960D8F839
:1038A0000010404601F00F01B9420BD9016821F028
:1038B0000F0139430160006800F00F00B84201D0E9
:1038C0000120D4E7207840070AD52069296801F053
:1038D0007001884204D2296821F0700101432960F7
:1038E000207800070AD56069316801F070018842CC
:1038F00004D2316821F07001014331602078C006A4
:103900000AD5A069316801F4E061884204D23168C7
:1039100021F4E06101433160207880060CD5E16933
:103920005846DBF8002002F07002914204D202688F
:1039300022F070020A43026000F09AF80E492A68E9
:103940002B68C2F3032203F00F038A5CC95C02F008
:103950001F0201F01F01D040084A20FA01F1116056
:103960000749086007480068BDE8F05FFFF72CB81A
:103970000020005218440258E457000814000024A4
:10398000100000240800002470B5144C3F2202608F
:10399000124A24680832131D114D04F007044460D4
:1039A00016681C1D06F470668660166806F00F0621
:1039B000C660126802F0700202611A6802F07002BA
:1039C00042611A6802F4E0628261226802F07002C9
:1039D000C261286800F00F00086070BD10440258F2
:1039E0000020005230B500F043F80B4A0B490C4B55
:1039F00015681468C5F3032204F00F048A5C095D9E
:103A000002F01F0201F01F01D040064A20FA01F126
:103A100019601060084630BD18440258E457000889
:103A2000140000241000002400B5FFF7DBFF054957
:103A30000968054AC1F30211515C01F01F01C84039
:103A400000BD00001C440258E457000800B5FFF711
:103A5000C9FF05490968054AC1F30221515C01F01B
:103A60001F01C84000BD00001C440258E457000874
:103A7000454970B545480968434B103B11F0380281
:103A800008D00111082A03D0102A0BD0182A0BD015
:103A9000084670BD19688906FBD51968C1F3C101D4
:103AA000C84070BD3A4870BD3749374D18310C1DBC
:103AB00024350A68096826682D6802F0030406F0B8
:103AC0000102C1F30511C5F3CC0515FB02F200EEAE
:103AD000102AB8EE400AE9B32F4ADFED2E0AB7EEFE
:103AE000001A6CB1DFED2D1A012C01D0022C43D04D
:103AF00002EE101A1068F8EE422A81EEA22A1EE0A9
:103B00001C68A40611D51B6801EE901A1168C3F356
:103B1000C103F8EE612AD84001EE900AC1F3080013
:103B2000F8EE611A81EEA22A0BE001EE901ADFEDA9
:103B30001C2A00BFF8EE611A106882EEA12AC0F3B9
:103B4000080001EE900AF8EE611A40EE201A31EEFC
:103B5000810A00E015E022EE000A1068C0F346205A
:103B6000401C00EE900AF8EE600A80EE201ABCEECF
:103B7000C10A10EE100A70BD01EE901ADFED092A9D
:103B8000D8E7002070BD0000104402580090D00318
:103B900000366E0100000039304402580024744A97
:103BA0000024744C001BB74B2DE9F05F04007DD05E
:103BB000FF4F2078FE4D1837DFF8F483103DC00723
:103BC00048D0D8F80000396800F03800102815D027
:103BD000182803D101F0030002280FD06068B0F567
:103BE000803F12D010B1B0F5A02F18D0286820F473
:103BF00080302860286820F4802009E0286880034D
:103C000028D560680028D2D024E0286840F48030AD
:103C10002860606888B1FEF79BFE064609E02868C8
:103C200040F480202860F0E7FEF792FE801B6428B5
:103C30007ED828688003F7D50CE0FEF789FE06469B
:103C400005E000BFFEF784FE801B6428F0D82868DA
:103C50008003F7D42078800756D5D8F80000DFF825
:103C60005093396810F03800A9F10C090ED01828CB
:103C700001D188070AD0E068A8B3296821F01901AA
:103C800001432960FEF764FE064628E028684007E5
:103C900002D5E06800288AD0E168286820F0190081
:103CA00008432860FEF754FE064606E0D2E000BF57
:103CB000FEF74EFE801B0228BAD828684007F7D5C9
:103CC000217CD9F8002022F0FE4242EA0161C9F8C5
:103CD000001019E0FEF73CFE801B0228A8D82868D7
:103CE0004007F7D5ECE7FFE7286820F001002860DF
:103CF000FEF72EFE064604E0FEF72AFE801B022891
:103D000096D828684007F7D42078C00646D5D8F85A
:103D10000000DFF89C92396800F03800A9F104092E
:103D2000082812D0182805D101F00300012800E06E
:103D3000CEE00AD0E0690028286820D040F080005A
:103D40002860FEF705FE064615E02868C00502D586
:103D5000E06980287ED194F82010D9F8002022F064
:103D60007C5242EA0161C9F8001017E0FEF7F0FD4D
:103D7000801B0228A0D82868C005F7D5EBE720F003
:103D800080002860FEF7E4FD064604E0FEF7E0FD53
:103D9000801B022890D82868C005F7D42078000737
:103DA00029D583486169643000298146016811D0B2
:103DB00041F001010160FEF7CBFD064605E000BFC2
:103DC000FEF7C6FD801B022888D8D9F800008007BE
:103DD000F6D510E021F001010160FEF7B9FD0646BD
:103DE00005E000BFFEF7B4FD801B022870D8D9F8AB
:103DF00000008007F6D42078800623D5A06900282B
:103E0000286810D040F480502860FEF7A1FD0646D7
:103E100005E000BFFEF79CFD801B022858D82868EB
:103E20008004F7D50EE020F480502860FEF790FD66
:103E3000064604E0FEF78CFD801B022848D828685F
:103E40008004F7D42078400751D5DFF86891D9F87D
:103E5000001000E015E141F48071C9F80010FEF790
:103E600077FD064605E000BFFEF772FD801B642863
:103E70002ED8D9F80000C005F6D54D4EA0686036A2
:103E800001280AD008B1052813D0306820F00100BD
:103E90003060306820F0040002E0306840F001003B
:103EA0003060A06841F2883A98B1FEF751FD814632
:103EB0000AE0306840F004003060EEE7FEF748FDAD
:103EC000A0EB0901514503D830688007F6D50EE014
:103ED00072E0FEF73DFD814606E000BFFEF738FDCB
:103EE000A0EB0901514567D830688007F6D4606AB5
:103EF00000287CD0DFF8B8A0D8F800100AF1200A1A
:103F00004FF6F87B0AF10408C1F3C2010329AAF1B4
:103F100004096DD00228286820F08070286003D042
:103F2000FEF716FD044681E0FEF712FD064604E0AA
:103F3000FEF70EFD801B022875D828688001F7D493
:103F4000E26A40F2F331386854F8283F884340EA87
:103F5000021018433860217B4FF4FE0C22894FF089
:103F6000FE47208A4902267D521E401EA1F500719F
:103F700089B2C2F308021143761E0CEA00400143E5
:103F8000484607EA06621143CAF80010D9F8001043
:103F900021F00101C9F80010D8F80030266A23EAA0
:103FA0000B0343EAC601C8F80010D9F8001004E07A
:103FB000104402580048025835E0A26921F00C0173
:103FC0001143C9F800100168E26921F002011143B0
:103FD0000160016841F480310160016841F4003101
:103FE0000160016841F480210160016801E06CE03A
:103FF00020E041F001010160286840F080702860F5
:10400000FEF7A6FC044604E0FEF7A2FC001B022813
:1040100009D828688001F7D557E000BFFEF798FC63
:10402000001B022802D90320BDE8F09F2868800108
:10403000F4D44AE039680128DAF8000021D0A26AF5
:1040400001F0030393421CD1E26AC1F305118A42D5
:1040500017D1216BC0F30802491E8A4211D1616B4E
:10406000C0F34622491E91420BD1A16BC0F3064218
:10407000491E914205D1E16BC0F30660491E8142A1
:1040800001D00120D0E7A16C4646D8F80000C0F36B
:10409000CC00814219D0D9F800004D4620F0010033
:1040A000C9F80000FEF754FC4FEA0007FEF750FC89
:1040B000B842FBD0A26C306820EA0B0040EAC20094
:1040C0003060286840F0010028600020ACE77047AD
:1040D0007047704710B5040003D094F83D0010B14C
:1040E00007E0012010BD002084F83C00204600F0CD
:1040F00022F8022084F83D002068211D00F004FF12
:10410000012084F8480084F83E0084F83F0084F8D9
:10411000400084F8410084F8420084F8430084F8A9
:10412000440084F8450084F8460084F8470084F889
:104130003D00002010BD704790F83D10012901D0CE
:10414000012070471A4A022180F83D100168CB68AF
:1041500043F00103CB60006890421AD0B0F1804F69
:1041600017D01449884214D01349884211D01349FA
:1041700088420ED0124988420BD01249884208D09A
:104180001149884205D01149884202D0104988421D
:1041900007D181680F4A1140062906D0B1F5803F4A
:1041A00003D0016841F00101016000207047000068
:1041B000000001400004004000080040000C0040E6
:1041C00000040140001800400040014000E00040B1
:1041D00000E400400700010070472DE9F04104466B
:1041E00000680027C6680569A90713D5B10711D56E
:1041F000FA1E02610121217720688069800720462C
:1042000002D0FFF7E9FF04E000F08BF8204600F051
:1042100089F82777680716D5700714D52268022019
:104220006FF00401116120772068806910F4407FED
:10423000204602D0FFF7D0FF04E000F072F82046DD
:1042400000F070F82777280715D5300713D52268B6
:1042500004206FF00801116120772068C069800791
:10426000204602D0FFF7B8FF04E000F05AF82046DD
:1042700000F058F82777E80616D5F00614D522681E
:1042800008206FF01001116120772068C06910F4D8
:10429000407F204602D0FFF79FFF04E000F041F886
:1042A000204600F03FF82777E80708D0F00706D04F
:1042B00021686FF001000861204600F034F82806FC
:1042C00001D4A80408D5300606D521686FF4025041
:1042D00008612046FFF7FCFEE80508D5300606D544
:1042E00021686FF4807008612046FFF7F0FE6806D1
:1042F00008D5700606D521686FF040000861204699
:1043000000F018F8A8060AD5B00608D521686FF0A5
:10431000200008612046BDE8F041FFF7DABEBDE8A5
:10432000F081704770470068B0F1804F01D1FEF70F
:1043300015BB7047704730B590F88410012918D02C
:10434000012280F884202421C0F888100022202433
:1043500001680B680D6823F0005325F001050D601E
:10436000426601680B60C0F8884080F884201046DF
:1043700030BD022030BD7047704770B5044690F8DC
:10438000840001281DD0012284F884202420C4F850
:10439000880020680568026822F001020260206837
:1043A000826822F060620A438260204600F022FEAA
:1043B0002268202100201560C4F8881084F8840049
:1043C00070BD022070BD70B5044690F884000128CD
:1043D0001DD0012284F884202420C4F8880020689D
:1043E0000568026822F0010202602068826822F0FB
:1043F00060420A438260204600F0FCFD22682021D2
:1044000000201560C4F8881084F8840070BD022074
:1044100070BD7047704770472DE9F041076800256F
:10442000044640F60F030226F8693968BA68184254
:104430000AD183067ED501F0200302F0805C53EAA6
:104440000C0377D0616F7EE1D44BDFF854C3134087
:1044500001EA0C0C53EA0C0C6CD05FEAC07C0CD067
:104460005FEAC15C09D54FF0010CC7F820C0D4F851
:10447000907047F00107C4F89070870709D5D707F7
:1044800007D027683E62D4F8906046F00406C4F86E
:10449000906046070AD5D60708D0276804263E62F2
:1044A000D4F8906046F00206C4F8906006070CD578
:1044B00001F020061E4308D0266808233362D4F892
:1044C000903043F00803C4F8903003050BD54B013E
:1044D00009D526684FF400633362D4F8903043F076
:1044E0002003C4F89030D4F89030002B3DD08006E3
:1044F00009D501F0200002F08051084303D0616F1C
:1045000009B1204688472168D4F890008968490697
:1045100002D410F0280F2AD0204600F04BFE20686D
:10452000806840061ED52068083050E8001F21F042
:10453000400100E021E040E80012002AF3D1D4F865
:10454000800078B197490165D4F88000FCF7BAFC87
:1045500000280AD0D4F88000016D00E02046BDE8B4
:10456000F04108472046FFF756FFBDE8F08120469E
:10457000FFF751FFC4F89050F7E7D4F86CC0202340
:10458000BCF1010F7ED15FEAC06C7BD55FEAC16CE4
:1045900078D51020386220688068400673D5D4F83A
:1045A000802081491068884234D07F491831884280
:1045B00030D07D49303188422CD07B494831884207
:1045C00028D079496031884224D0774978318842AF
:1045D00020D07549903188421CD07349A831884257
:1045E00018D07249884215D070491831884211D0CC
:1045F0006E49303188420DD06C494831884209D02B
:104600006A496031884205D068497831884201D0D2
:104610006649903140684FF480770004000C40D028
:10462000B4F85C1081423CD9A4F85E00D069B8426D
:104630002FD0216851E8000F20F4807041E800027B
:10464000002AF6D12068083050E8001F21F001014F
:1046500040E80012002AF5D12068083050E8001F19
:1046600021F0400140E80012002AF5D1C4F88C3056
:10467000E566206850E8001F21F0100140E80012B4
:10468000002A01E04AE019E0F3D1D4F88000FCF7F9
:1046900069FA2667B4F85C00B4F85E10401A81B27B
:1046A00008E0B4F85C1081427FF466AFD069B8428C
:1046B000FAD126672046FFF75EFE56E7B4F85C00A5
:1046C000B4F85E10B4F85E20401A81B2002AF4D02B
:1046D0000029F2D0226852E8000F20F4907042E8DE
:1046E0000007002FF6D1324F206800F1080050E893
:1046F000002F02EA070240E8002CBCF1000FF3D1C2
:10470000C4F88C30E5666567226852E8000F20F037
:10471000100042E80003002BF6D1CAE7C60209D513
:10472000560207D54FF4801038622046BDE8F041AC
:10473000FFF770BE06060AD501F0800602F40002FB
:10474000164304D0A16F00297FF408AF0DE742069D
:1047500011D54A060FD52046016851E8002F22F0F6
:10476000400241E80024002CF6D1C0F8883085676B
:1047700000F0D4F8F9E6020206D54A0004D5204636
:10478000BDE8F041FFF745BEC00196D5002994DA97
:104790002046BDE8F041FFF7EFBD0000010000102A
:1047A00020010004AB510008100002401004024038
:1047B000FEFFFFEF10B5040003D0D4F8880010B15D
:1047C00007E0012010BD002084F88400204600F09E
:1047D00027F82420C4F888002068016821F001012E
:1047E0000160A06A10B1204600F026FC204600F0CF
:1047F0000BFD0128E6D02068416821F4904141601A
:104800002068816821F02A0181602068016841F0F8
:10481000010101602046BDE8104000F071BC0000BD
:1048200070B5B4B0064614212EA8FBF76CFEB82173
:104830006846FBF768FE3349306888425FD1002044
:104840001D9002210546CDE900106846FEF7D0FA1A
:1048500008B1FBF7D0FF2C48016841F480110160DA
:10486000006800F48010339027480838016841F050
:1048700002010160016801F002013391016841F019
:1048800008010160006802242EAA00F0080033909D
:1048900020030E2182E83100CDE931511B482EA9B9
:1048A000FDF744FF2EAA0420082182E83100CDE95B
:1048B000315117482EA9FDF739FF164C41211648F2
:1048C000021520608315C4E90115C4E9035265612E
:1048D0004FF44030C4E90653C4E908052046FCF70C
:1048E00073FF08B1FBF787FF0022C6F88040352030
:1048F0001146A663FEF7CAF83520FEF7B9F834B0C2
:1049000070BD000000500040E84402580004025806
:10491000000C02588C020024100002407047FEE791
:10492000094808B5016841F00101016000680022F2
:10493000114600F0010000900B20FEF7A7F8BDE83B
:1049400008400B20FEF794B8D844025819480021BB
:104950002DE9F041164F0A238160012507600324E9
:10496000C1601D260174042241748574C661C0E9CA
:104970000543C0E908340824C0E90A368563C0E964
:104980000C31C0E90F14C0E91121C0E91321C0E9BD
:104990001521C0E91712C0E91912FDF745FC0028DE
:1049A00003D0BDE8F041FBF726BFBDE8F081000071
:1049B00000A00040180000241A4800212DE9F04111
:1049C000174D00F114088160012405600323C160C4
:1049D0000A2601741D27417404228474802588E806
:1049E000C800C0E908630823C0E90A670663C0E994
:1049F0000F13C0E91121C0E91321C0E91521C0E955
:104A00001712C0E91912C0E90D54FDF70DFC00287A
:104A100003D0BDE8F041FBF7EEBEBDE8F081000039
:104A200000A40040B80000241A4800212DE9F041FC
:104A3000174D00F114088160012405600323C16053
:104A40000A2601741D2741740422847488E8C80072
:104A5000C0E908630823C0E90A6706639501C0E955
:104A60000F13C0E91121C0E91321C0E91521C0E9E4
:104A70001712C0E91912C0E90D54FDF7D5FB002843
:104A800003D0BDE8F041FBF7B6BEBDE8F081000001
:104A900000D40040580100240D4808B5016841F0D9
:104AA00080010160016801F080010091016841F01E
:104AB00002010160016801F002010091016841F00A
:104AC00008010160006800F00800009008BD0000C7
:104AD000E0440258194800212DE9F041164A0C24FF
:104AE000C0E90541C1614FF4E133016295144162AF
:104AF00056141715816280E8EC00FFF75BFE08B1E1
:104B0000FBF779FE0D480021FFF75DFC08B1FBF7CC
:104B100072FE0A480021FFF730FC08B1FBF76BFE7C
:104B20000648FFF708FC002803D0BDE8F041FBF77A
:104B300062BEBDE8F081000000500040F801002492
:104B4000FEE7FEE7704700002DE9F047454D0446BB
:104B500089464FF0000A2868C04380070AD0414EBA
:104B6000283E306820F080603060FDF7F1FE074697
:104B7000B04608E00120BDE8F08700BFFDF7E8FE81
:104B8000C01B022867D8D8F800000001F6D42068BE
:104B900029684FF4FE0721F47C313E0241EA0030DF
:104BA0002860207AA389B4F804C040022D4D2D4915
:104BB0005B1E227CACF1010C1035091DA0F50070C4
:104BC00080B2521ECCF3080C07EA034340EA0C0003
:104BD000184306EA0262104328600868626920F000
:104BE000C000104308600A68A06922F02002024356
:104BF0000A60281D0A6822F010020A6002684FF657
:104C0000F873E4699A4342EAC40202600868B9F1A1
:104C1000000F40F010020A6011D00868B9F1010FCE
:104C200011D040F400100860D8F80000444640F06D
:104C30008060C8F80000FDF78BFE05460DE00868AF
:104C400040F40020EFE740F48010ECE7FDF780FE31
:104C5000401B022801D903208DE720680001F5D50B
:104C6000504688E7284402582DE9F047454D044650
:104C700089464FF0000A2868C04380070AD0414E99
:104C8000283E306820F080503060FDF761FE074616
:104C9000B04608E00120BDE8F08700BFFDF758FEF0
:104CA000C01B022867D8D8F800008000F6D42088FE
:104CB00029684FF4FE0721F07C713E0241EA005062
:104CC0002860207AA389B4F804C040022D4D2D49F4
:104CD0005B1E227CACF1010C1835091DA0F500709B
:104CE00080B2521ECCF3080C07EA034340EA0C00E2
:104CF000184306EA0262104328600868626920F4DB
:104D00004060104308600A68A06922F40072024300
:104D10000A60281D0A6822F480720A6002684FF651
:104D2000F873E4699A4342EAC40202600868B9F180
:104D3000000F40F480720A6011D00868B9F1010FC9
:104D400011D040F080700860D8F80000444640F070
:104D50008050C8F80000FDF7FBFD05460DE008682F
:104D600040F48000EFE740F40000ECE7FDF7F0FDD1
:104D7000401B022801D903208DE720688000F5D56B
:104D8000504688E7284402587047704770B59CB079
:104D90004C216846FBF7B7FB202113A8FBF7B3FBB8
:104DA0000220FDF7A5FE1E48016821F44041016084
:104DB0000168002401F440411B9101688904FCD57D
:104DC00002200A9028230990C20301210D91042595
:104DD000CDE90012CDE90B030C261294CDE90E505B
:104DE000CDE910646846FEF7DFFE08B172B6FEE753
:104DF00040201A9008230501CDE9163013ABCDE908
:104E000018053F21032283E8160013A81146FEF778
:104E10008DFC002801D072B6FEE71CB070BD00000A
:104E2000184802582D48F0B52D4A016841F4700128
:104E30000160106800F00F00072804D2106820F00D
:104E40000F00C01D106027490020264C10340B684D
:104E5000254D43F001030B6020600B682B400B6075
:104E6000136803F00F03072B04D9136823F00F0313
:104E7000DB1D13601B4C1D4A18341D4B261D371DAE
:104E80002060184C1B4D28343060261D3860371DBB
:104E900023603B1D35601C1D3A60251D2E1D1860CA
:104EA000331D22602860326018600B680D4A0D4C7B
:104EB00023F48023D4320B60603420601068C00477
:104EC0000BD4136843F2D2000B4943F480531360B0
:104ED0000860106820F480501060F0BD88ED00E09C
:104EE00000200052004402587FEDF6EA80020101E2
:104EF000000202020000FF01004000520148FFF7DB
:104F00006CB90000040300242DE9F0472C4B4FF04E
:104F1000804A2C4D026898422B4E2C4F2C4C09D0C5
:104F2000504507D0A84205D0B04203D0B84201D0C6
:104F3000A04205D1D1F804C022F070024CEA02026E
:104F4000DFF890C0DFF890809842DFF8909015D09D
:104F5000504513D0A84211D0B0420FD0B8420DD066
:104F6000A0420BD0604509D0404507D0484505D048
:104F70001B4DA84202D01B4DA84203D1CD6822F49C
:104F800040722A438E684D6922F08002C6620E6824
:104F90002A439842866207D0A04205D0604503D0DC
:104FA000404501D0484501D10969016303680121E9
:104FB00043F00403036041610260BDE8F087000034
:104FC000000001400004004000080040000C0040C8
:104FD00000040140004001400044014000480140FD
:104FE00000E0004000E400400148FFF715BA00006F
:104FF000F801002430B5416EB9B101680D4B03F1E1
:1050000008048A688968C2F34262490F5D5C615C8A
:105010002D01B5FBF1F1A0F86A10995CA25C0901C1
:10502000B1FBF2F1A0F8681030BD0121A0F86A10C0
:10503000F8E70000D457000890F82810090706D5B3
:105040000168836B4A6822F400421A434A6090F870
:105050002810C90706D00168C36A4A6822F40032E2
:105060001A434A6090F82810890706D50168036B37
:105070004A6822F480321A434A6090F8281049079F
:1050800006D50168436B4A6822F480221A434A60BD
:1050900090F82810C90606D50168C36B8A6822F407
:1050A00080521A438A6090F82810890606D5016854
:1050B000036C8A6822F400521A438A6090F8281020
:1050C000490611D50168436C4A6822F480121A43DC
:1050D0004A60416CB1F5801F06D10168836C4A6853
:1050E00022F4C0021A434A6090F82810090606D537
:1050F0000168C26C486820F4002010434860704783
:105100002DE9F84300250446C0F89050FDF720FC37
:105110008046206820266FF07E470068000713D580
:105120000022434631042046009700F05BFA58B154
:10513000216851E8000F20F0800041E80002002AB9
:10514000F6D1C4F8886021E020680068400722D5C5
:10515000002243464FF480012046009700F042FAB7
:10516000C8B1206850E8001F21F4907140E8001297
:10517000002AF6D12068083050E8001F21F0010114
:1051800040E80012002AF5D1C4F88C60032084F8AE
:105190008450BDE8F883C4F88860C4F88C60E56684
:1051A0002567002084F88450F3E710B5806BFFF783
:1051B00032F910BD10B5026852E8001F21F4907159
:1051C00042E80013002BF6D10E4B0268083252E879
:1051D000001F194042E80014002CF6D1C16E0129CD
:1051E00008D1026852E8001F21F0100142E80013C4
:1051F000002BF6D100212022C0F88C20C166416727
:1052000010BD0000FEFFFFEF2DE9F043044680686B
:10521000E24E87B0E24B2168D4E90427D4F81CC0E1
:1052200010430A68002547EA0C073843324002431E
:105230000A602068E268416821F4405111434160EE
:105240002268A1699A4201D0206A01439668DFF87A
:1052500054C3D54FD54806EA0C060E439660216824
:10526000666ACA6A22F00F023243CA622268BA42F0
:105270000ED1006800F0380018286FD07ADCB8B37F
:1052800008286CD010286BD18BE0282868D18EE0DC
:10529000C7498A4209D1006800F0070006285FD29A
:1052A000DFE800F0507D7F818385C2498A4209D1C1
:1052B000006800F0070006287BD2DFE800F04370AA
:1052C00072747678BC498A4209D1006800F0070000
:1052D00006286ED2DFE800F036636567696BB74970
:1052E0008A420BD1006800F00700062861D200E076
:1052F00043E0DFE800F0275456585A5CB0498A4230
:1053000006D1006800F0380018284CD0B7DD31E035
:10531000AC498A4209D1006800F00700062848D24B
:10532000DFE800F0103D3F414345A7498A420BD1D9
:10533000006800F0070006283BD2DFE800F00330E9
:1053400032343638002035E0A0498A4209D100685D
:1053500000F03800182826D091DD0BE023E01EE095
:1053600027E09B498A420AD1006800F038001828DB
:1053700019D084DD202888D11CE001201AE09A424F
:1053800017D18A48001D006800F00700062810D2D7
:10539000DFE800F0030507090B0D02200AE00420F6
:1053A00008E0082006E0102004E0202002E0402071
:1053B00000E080208749DFF820829A42874A4FF434
:1053C00000434FEA21174FF000064ED110281AD0A3
:1053D00006DC022809D004280BD008287ED10DE075
:1053E00020283ED0402879D13DE0FDF7ABFB0146B7
:1053F00010E06846FDF7B8FB01990BE003A8FDF744
:1054000055FC049906E01068800605D51068C0F3C5
:10541000C100C140002970D0606A676838F8102068
:1054200007EB4703B1FBF2F0834257D8B0EB073FDD
:1054300054D8002308461946FAF7BCFF02467808FC
:10544000130E120243EA012110183A46714100235B
:10545000FAF7B0FF624AA0F5407191423ED8216848
:105460008FE03946D8E71946D6E7D4F81CC04FF686
:10547000EF799C4546D1082819D005DC58B10128A0
:105480000CD0042875D10DE0102815D0202835D077
:1054900040286ED134E0FEF7C7FA01E0FEF7D6FAF5
:1054A000014610E06846FDF75FFB01990BE003A899
:1054B000FDF7FCFB049906E01068800604D510682F
:1054C000C0F3C100C140C1B1636A606838F81330ED
:1054D000B1FBF3F1490001EB500100E049E0B1FB01
:1054E000F0F0A0F11001494543D84FF6F073216860
:1054F000C0F342021840104343E043E03946E3E77B
:105500001946E1E7082819D005DC58B101280CD06C
:1055100004282ED10DE0102815D020282BD04028AB
:1055200027D12AE0FEF780FA01E0FEF78FFA014664
:1055300010E06846FDF718FB01990BE003A8FDF7A2
:10554000B5FB049906E01068800604D51068C0F326
:10555000C100C140B1B1636A606838F81330B1FB73
:10556000F3F101EB5001B1FBF0F0A0F1100149455E
:1055700005D9012506E03946EDE71946EBE7216834
:1055800080B2C8600120A4F86A00A4F86800284628
:105590006667A66707B0BDE8F0830000F369FFCF38
:1055A000000C0058FFF4FF11001001405444025851
:1055B0000044004000480040004C004000500040C3
:1055C0000014014000780040007C004000180140B9
:1055D000001C01400090D003BC5700080044025852
:1055E000FFFC0F002DE9F047994617460D4604468B
:1055F000089E4FF0000833E0701C31D0FDF7A8F989
:10560000A0EB0900B04218D8BEB120680168490774
:1056100026D5802D24D0402D22D0C169C943090749
:105620000DD4082505622046FFF7C4FDC4F890504C
:10563000012084F88480BDE8F0870320FBE7C0697F
:10564000C04300050CD421684FF400600862204676
:10565000FFF7B0FD2021C4F8901084F88480ECE7B7
:105660002068C06935EA000004D00020B842C3D0E9
:105670000020E0E70120F9E7FEE7090700284FEAEC
:10568000116104DB00F1E02080F80014704700F0A5
:105690000F0000F1E02080F8141D704710B58AB0AB
:1056A0000024022001210194CDE90414CDE9024037
:1056B000144801A90694FCF7EFFA022211480023CE
:1056C00011460094FCF727FB0E48FDF70CF80D4837
:1056D00000220121FCF768FA0B4801A9FCF7DCFA6B
:1056E00002220948002311460094FCF714FB0648E7
:1056F000FCF7F9FF044800220121FCF755FA0AB033
:1057000010BD000018000024B80000241CB5FDF7EF
:105710002DF9FFF73BFBFFF7BFF9FFF701F9FFF7A3
:1057200015F9FFF749F9FFF77FF9FFF7D3F9FFF70D
:10573000B5FF00240094002301941A461946184628
:10574000FBF79EF90A20FCF71DFAF3E74FF04070D3
:10575000E1EE100A7047000000010203040506078D
:10576000080C101418203040000000000000000059
:105770000000000000000000000000000100000028
:105780000200000003000000040000000000000010
:105790000500000000000000000000000000000004
:1057A00006000000000000000000000000000000F3
:1057B0000700000000061016000610160100020087
:1057C0000400060008000A000C0010002000400041
:1057D0008000000101010103070100000804020428
:1057E000080101010000000001020304010203049A
:1057F00006070809145800080000002418000000DB
:10580000080300082C58000818000024D8090000DC
:105810002403000800000000010000001000000048
:0C582000000000000090D0030090D003B6
:04000005080002CD20
:00000001FF
